:020000041000EA
:1000000000B5324B212058609868022188439860DF
:10001000D860186158612E4B002199600221596106
:100020000121F02299502B49196001219960352056
:1000300000F044F80222904214D00621196600F024
:1000400034F8196E01211966002018661A6600F04E
:100050002CF8196E196E196E052000F02FF8012189
:100060000842F9D1002199601B49196000215960AB
:100070001A491B48016001219960EB211966A021F2
:10008000196600F012F800219960164914480160C1
:100090000121996001BC002800D000471248134993
:1000A000086003C880F30888084703B5996A0420EC
:1000B0000142FBD001200142F8D103BD02B5186610
:1000C0001866FFF7F2FF186E186E02BD00000240BE
:1000D000000000180000070000035F00212200005C
:1000E000F4000018222000A00001001008ED00E03C
:1000F00000000000000000000000000074B24E7A12
:1001000000200420F7010010C3010010C5010010F9
:10011000C1010010C1010010C1010010C101001097
:10012000C1010010C1010010C1010010C701001081
:10013000C1010010C1010010C9010010CB01001065
:10014000CD010010CD010010CD010010CD01001037
:10015000CD010010CD010010CD010010CD01001027
:10016000CD010010CD010010CD010010CD01001017
:10017000CD010010CD010010CD010010CD01001007
:10018000CD010010CD010010CD010010CD010010F7
:10019000CD010010CD010010CD010010CD010010E7
:1001A000CD010010CD010010CD010010CD010010D7
:1001B000CD010010CD010010CD010010CD010010C7
:1001C00000BE00BE00BE00BE00BE00BE00F04BF888
:1001D000103800BEF2EB8871401201106812011055
:1001E0003402001090A31AE700202149086006C8D5
:1001F00081F3088810471F48006800282FD10DA4FC
:100200000ECC002902D000F012F8F9E71A491B4A77
:10021000002000E001C19142FCD1194988471949E9
:1002200088471949884700BEFDE701C901C29A42C3
:10023000FBD3704768120110C0000020380D002069
:10024000E01E01100000042000000420E01E011048
:1002500000100420001004200000000070470B482C
:1002600001F09AFF0047EFF30580C0B2704700002D
:1002700008ED00E0000000D0380D00202C1B00200D
:100280007D1800100D040010A11900105756000031
:1002900006005250ABB36053800F0110060052505D
:1002A000861C0302900F0110060052505422A29D9A
:1002B000980F011005005250DE65F468E01E011031
:1002C000F8B5C0460448054B10B5834203D0044B33
:1002D000002B00D0984710BD380D0020380D0020AD
:1002E0000000000006480749091A8B10C90FC918F9
:1002F00010B5491003D0044B002B00D0984710BD17
:10030000380D0020380D00200000000010B5074C0B
:100310002378002B09D1FFF7D5FF054B002B02D026
:10032000044800E000BF0123237010BD400E0020F0
:1003300000000000D0A80010054B10B5002B03D022
:100340000449054800E000BFFFF7CCFF10BDC046E0
:1003500000000000440E0020D0A8001010B506F0E8
:1003600071F99623204C9B0223611F211A2000F073
:1003700079F9002200211A2000F08CF900211A20BE
:1003800000F0A0F91F211B2000F06CF900220021D1
:100390001B2000F07FF900211B2000F093F9E022E0
:1003A0002368D2011340114AFA201360C023216848
:1003B0009B024B40F82149030B4013600C4B80001B
:1003C0001A680C4B53400C4A13400C4A136000F05F
:1003D00051FE012006F052F9094BC0021840094BAA
:1003E0001843094B186010BD00C0044000D0044001
:1003F00008C00440090000010F00000F08D00440AD
:10040000FF7F00FF210012003C180020F0B5DE46FF
:1004100057464E464546E0B5824C0023A54400228F
:100420000021A02008F000FB0790642007F0A4F84A
:1004300007F0A6F8002809D0012040427A4B9D44DD
:100440003CBC90469946A246AB46F0BD774C06F0C0
:1004500025F9200006F018FEFA20800007F08CF83D
:10046000C820C00103F01CF90390002800D1D3E09C
:100470006F4B039D5A88198828000023009406F0CA
:1004800039FF412006F068FF200006F09BFF0020A6
:1004900006F052FF200006F095FF002250231100C5
:1004A00064480093DB1806F0F9FF280006F032FEDE
:1004B000FA20C00007F060F8280006F02BFEFFF7D6
:1004C0004DFF0023029358AB98465B4B99465B4B1C
:1004D0009B46802252005B461B681342FBD05B4662
:1004E0009B68134207D1802252005B46DB685B4663
:1004F0009B681342F9D00821514B52481960524B66
:100500001B689A01A023DB05D318186008A858605F
:10051000A020400098604D480068D8604C4B069081
:1005200019604C4B80219C464904624413680B427D
:10053000FCD10020002108AB00251C7801330019F4
:1005400069419845F8D10494059503F00FF84249A4
:1005500002F0C1FF4546061C08AC207802F0D6FF29
:10056000311C02F0B2FF6860607802F0CFFF311CEE
:1005700002F0ABFF023428600835A045EDD106AA91
:10058000C9239446DB0063441A004146079808F0EB
:100590002FFC4F23029A06A99B1AC9228C46D2002F
:1005A00062449C469D000693039B65449C46AD01B6
:1005B00065448C46294B140063449A462168676859
:1005C000081C02F09CFF391C061C381C02F097FF27
:1005D000011C301C02F07CFF02F0C0FF4B46C0B291
:1005E00040001B5C48442B80437808346B80023504
:1005F000A245E3D16B4603981821595E06F0AEFD83
:1006000000224F21029B01339BB299425241524238
:1006100013401BB202935CE7114803F08FF9039873
:1006200001F0BEF99CF4FFFF640B0000FFFF000027
:10063000041B0020F8AA0010F8A8001000C0044015
:1006400000F004400CC00440381800203C18002082
:1006500000E00440100000500000A043480B0000E0
:10066000D0A80010094A830094464022634410B584
:100670001C68C0006240C024144080225201134311
:100680001C60034B9C466044416010BD04C00140A7
:10069000004001400A4B80009C460423604400292E
:1006A00001D00C230821002A00D10B00026853401E
:1006B0000C221A4080235B01184302607047C04639
:1006C00004C00140084B80009C466044002905D0CE
:1006D00080239B011843402303607047C0239B0184
:1006E000184340230360F8E704C001400123D022EF
:1006F0008340120693629361094A83009446402224
:1007000063441968C0004A40C02111408022520150
:1007100013431960034B9C460523604443607047B4
:1007200004C0014000400140F8B5EFF3108772B6F5
:100730000E4E3368002BFCD0BFF35F8FCB08C4187C
:100740000725A446C45C01230D40AB40180020409F
:10075000234208D1624623431370BFF35F8F30609A
:1007600087F31088F8BD100001F01CF92C0100D0AF
:10077000F8B5CE4647468C4680B5EFF3108872B682
:10078000214D2C68002CFCD0BFF35F8F9A422CD8EF
:10079000D4080721055D0619012411408C402C4224
:1007A0001FD007218946063909E0D408055D0619DE
:1007B0004C460F001440A7403C002F4211D001329C
:1007C0009342F2D201204042BFF35F8F00220E4BD2
:1007D0001A6088F3108800280FDB0CBC90469946FD
:1007E000F8BD2C4310003470EEE7BFF35F8F002399
:1007F0002B6088F31088012040426346002BECD028
:10080000089801F0CFF8C0462C0100D0024B1868C0
:100810008007C00F7047C04600C006400021044B4F
:10082000044ABFF35F8F02C39342FAD17047C046B8
:10083000000100D0800100D0044A1078431CDBB2D4
:10084000172B00D9102313707047C046D003002027
:1008500000B5054B83B00100009318221F23034805
:10086000FFF786FF03B000BDF80E0110341300201F
:10087000F8B5040006200D0001F010FA002845D05C
:100880002B4B2C49E3185A4253418022D203944601
:100890005B421340284A63441360284A13601800DF
:1008A0008A689043FBD1224B8021E3185A4253417E
:1008B000234A5B0049000620995201F0EFF9290014
:1008C000C00001F0BFFCC30921D14027012226004E
:1008D00080256262A36200232C36AD0135432B6074
:1008E000062001F0DBF93900800001F0ABFC602349
:1008F000E26A53406E221A4080235B0133431A6040
:10090000104B236310232B600D3BA364F8BD0E4AEC
:10091000934203D900230D4F0D4AD8E77F221040A0
:10092000013040089F011A003F180300CFE7C0467E
:100930000080FCBF00C0004000E0004000F000402C
:100940004018002001030000FEFF0000C0FF3F0030
:10095000FFFF000083680B4810B584466144624481
:10096000090112019A18591854684B6801209C42D9
:1009700001D802D00020C0B210BD12680B689A42A4
:10098000F9D8F7E7FFFFFF0F0A4B1968EFF3108064
:1009900072B60A68002AFCD0BFF35F8F1B68BFF3F2
:1009A0005F8F00221A6080F3108840BF0020002172
:1009B0007047C046FC170020F8B557464E464546DE
:1009C000DE46E0B5434D81468A466A68EFF31088FB
:1009D00072B61368002BFCD0BFF35F8F2E68B47B18
:1009E000002C3ED0670033683F19033FDA19537873
:1009F000B373002B00D1F373002393705370137003
:100A0000A968354A8C464946A21812016244116011
:100A1000514651603149D36091603268D219937068
:100A200053701370737B9B46002B35D02200190046
:100A3000B068736898473268002820D05B465846F3
:100A40005B005B44D719033BB870D118D35C002B13
:100A500000D07B705B460C7073735C451DD0002624
:100A600026E06B68BFF35F8F1C6088F3108801205D
:100A700040423CBC90469946A246AB46F8BD5B4618
:100A80005B005B44033BD3189C70D119D25D002AF4
:100A900000D05A705B460B7074734A465346287DEB
:100AA00000F036FC061EDAD02100286800F0A8FE0F
:100AB000EB686A681B19013B1B78BFF35F8F00214D
:100AC000116088F310880020002ED2D11802204334
:100AD000CFE7C046D4030020FFFFFF0F89090010B5
:100AE000F8B5574645464E46DE46E0B599460CAB4E
:100AF00019780DAB1B78050090469A4607680029C7
:100B000012D1BE7B002E45D074003B68A419033C73
:100B10001B195A783100BA73002A00D1FA730022E7
:100B20009A705A701A7003E00E004C006418033C6F
:100B30002C4B00229C46AB6861449C46434609010D
:100B400061440B604B464B600A9B8B600B9BCB60F8
:100B50003B681B199A705A701A707B7B9B46002B5E
:100B60002CD032005946B8687B6898473A6800280C
:100B700017D05B4658465B005B441419033BA070DA
:100B8000D118D35C002B00D063705B460E707B7372
:100B9000B34514D030003CBC90469946A246AB46C3
:100BA000F8BD5B465B005B44033BD3189E70111994
:100BB000125D002A00D05A705B460B707E7342466D
:100BC0004B46287D00F0A4FB041E06D05346002BA4
:100BD00003D13100286800F013FE0E9B002BD9D002
:100BE0001C70D7E7FFFFFF0FF0B5DE464E465746B5
:100BF00045460023E0B58DB00A936B4B8200D35875
:100C00000B90994600239B464B46079300F020FB30
:100C1000079C06000F006268EFF3108572B6136838
:100C2000002BFCD022000794BFF35F8F2468637B06
:100C30009946002B67D092685C4B90464B441B0151
:100C4000984443461A685B6810001900801BB9413C
:100C500000295FDD0B9800F05BFB0023002698461F
:100C600000279A46079C6368BFF35F8F5A461A6055
:100C700085F310885346002B08D10028C6D10DB04B
:100C80003CBC90469946A246AB46F0BD0A9B414605
:100C900018024B461843D047089009916268EFF359
:100CA000108572B61368002BFCD00794BFF35F8FDA
:100CB0000899099A002A48DB114303D0079B1B6956
:100CC000002B5DD1079B1B68DA7B002A07D05100FF
:100CD0008A1819688C4649466244033A51704A465C
:100CE000DA734B46079A013BD168CA5C0132CA5499
:100CF0005B46079A13615368BFF35F8F5A461A60C9
:100D000085F3108882E700230026984600279A463C
:100D10000020A7E7002901D100289BD10021200055
:100D200000F0D0FC43461E685F689B68079A9A46AD
:100D30004346DB689846D3684B44013B1B780A93D3
:100D40001B020343136100208CE72369002BB9D0F9
:100D500033003C005B1A94411A002300A74219D8C3
:100D60009F421BD0594604910121039149460291AB
:100D700041460191514607980091FFF7B1FEB7E750
:100D800000F066FA089A099B06000F0092197B4151
:100D90009942E5D901225242D317E3E79642E1D9BD
:100DA00001225242D317DDE7E0170020FFFFFF0FBB
:100DB00010B5124C6368002B04D00A21104800F0D3
:100DC00039FB10BD23000F4A1021206800F098FB6A
:100DD000032000F031FA032000F00CFB03200A4945
:100DE00000F050FAFFF728FD084B9C4603236044AF
:100DF0002375074B80006060DC60DEE7D4030020D1
:100E0000FC17002055090010E90B001040000034C9
:100E1000E017002000487047D4030020F0B5574683
:100E20004546DE464E46E0B585B0019310AB1B78D3
:100E300000270393002380469A46009243465A684F
:100E4000EFF3108972B61368002BFCD0BFF35F8FED
:100E500043461D68AC7B002C4FD066002B683619CA
:100E6000033E9B195A78AA73002A00D1EA734246BE
:100E70009F705F701F709268524B94460099019A60
:100E8000E3181B01634419605A600E9A9A600F9A26
:100E9000DA602B689B199F705F701F706B7B9B469D
:100EA000002B46D022001900A8686B6898472A6872
:100EB000002831D05B4658465B005B449619033BE3
:100EC000B070D118D35C002B00D073705B460C70EF
:100ED0006B735C452ED04346DB681B19013B1878C9
:100EE00043465B68BFF35F8F1F6089F310885346EA
:100EF000002B2ED10002204307E05B68BFF35F8F19
:100F00001C6089F310880120404205B03CBC90462B
:100F10009946A246AB46F0BD5B465B005B44033B93
:100F2000D3189C709119925D002A00D05A705B46CC
:100F30000B706C734346187D009A019B00F0E8F932
:100F400082460028C7D043462100186800F058FCAC
:100F5000C1E7039B002B32D00E9B00200F999847CE
:100F6000030004000D000B4329D000290DDA00987E
:100F7000019902000B00121BAB41994215D81AD0FF
:100F800000920193039B9A4658E700F061F9020032
:100F90000B00A4185D412000290000900191AB4294
:100FA00003D8EFD100998A42ECD901235B42DC17C8
:100FB00000930194E6E700999142E1D9F5E700201A
:100FC000A3E7C046FFFFFF0FF0B504000D000626A3
:100FD0007642F717C64636196F4100B58F4213D8CF
:100FE00010D000F035F932003B00121A8B41002B73
:100FF00014DC002B37D02900200000F033F904BCAA
:101000009046F0BD8642ECD90026002700F020F97A
:1010100032003B00121A8B41002BEADD3000390010
:10102000FFF7CAFC0028E6DB00239846BC460F4ABF
:101030000F4F7B6A9C4504D8B96A8E42DBD99C4528
:10104000D9D11168EFF3108072B60B68002BFCD079
:10105000BFF35F8F1368BFF35F8F4146196080F362
:10106000108820BFE5E7002AC5D0D7E7FC1700208D
:101070000040054070B5060000F0EAF8FA220400CE
:101080000D00002330000021920002F001FA001947
:1010900069418D4205D802D0FFF796FF70BD8442AA
:1010A000FAD901204042C117F6E7C046F8B5CE464E
:1010B000474680B506000C00FFF77EFC00280CDCDC
:1010C0002D4B0020596A8C4203D89B6A0130B342F1
:1010D00045D30CBC90469946F8BD20BF274D6A68A1
:1010E000EFF3108772B61368002BFCD0BFF35F8F4D
:1010F0002B68C1B29C465B7B8B4235D0FF230340FB
:101100005A00914662461268994490464A464244C3
:10111000033A9278002A1DD0EA68000A90464344B8
:10112000013B1B78C0B2834221D06B68BFF35F8F55
:1011300000221A6087F310880F4A0020536A9C42ED
:10114000C7D8926A0130B242C3D2E41A601E844109
:10115000E0B2BEE72B699842E7D12A61E5E7641A5D
:10116000601E8441E0B2B4E7FF230340D4E7604649
:1011700000F046FBD9E7C04600400540D4030020FC
:10118000F0B5D6464F464646C0B5EFF305833F223D
:10119000134018001038EFF3108C72B6204D2A68F7
:1011A000002AFCD0BFF35F8F0122110081401D4C4B
:1011B000884661631C4917000E788A463100C14099
:1011C0000F400A4215D019498200646A51588C4276
:1011D00019D3174BD25843469E4353461E70BFF354
:1011E0005F8F00232B608CF31088002A06D0904775
:1011F00004E0BFF35F8F2F608CF310881CBC904617
:101200009946A246F0BD0B4A9B00904643441A689B
:101210001A60BFF35F8F00232B608CF31088EDE71B
:10122000280100D000400540361800200818002092
:1012300024120020D03F054010B50100024A0348A7
:10124000FFF772FA10BDC046140F011033180020CA
:10125000034B596A0A00986A596A8A42FAD1704760
:1012600000400540064A536A9942FCD807D1044B16
:1012700002E05A6A914202D19A6A8242F9D37047D7
:101280000040054070B504000D00EFF3108672B603
:101290001A4A1368002BFCD0BFF35F8F002D1BD0C0
:1012A000200000F01BFD164981420AD0200000F00A
:1012B0001DFD0121200000F0F7FC0123A340114A8D
:1012C0001360114BA400E550BFF35F8F00220B4B5E
:1012D0001A6086F3108870BD0B4BA200D550012216
:1012E000A2400A4920000B7893430B70044900F098
:1012F00027FD0021200000F0D7FCE5E7280100D001
:10130000811100103860054024120020361800209A
:10131000F0B54F46D6464646C0B50700304C616A28
:101320000D00A66A616AA942FAD18B4208D805D09D
:1013300001201CBC90469946A246F0BDB242F7D9A6
:10134000EFF3108972B6274801680029FCD0BFF37B
:101350005F8F01252449BD408C460978204C0E0042
:101360002E438846F1B28A46614650460870391DC0
:101370001E48890065630A51B9000B50216A00209C
:10138000294219D0616A0800A66A616A8142FAD1CD
:101390008B4219D801D1B24216D8C2451DD0104B8C
:1013A0001F201D625D6301230740BB40104A1E38A9
:1013B0001360634642461A70BFF35F8F0022094BE9
:1013C0001A6089F31088B4E70020BFF35F8F002212
:1013D000044B1A6089F31088ABE70120ECE7C046A4
:1013E00000400540280100D03618002008180020D1
:1013F00080E200E010B5EFF3108472B60A490B6882
:10140000002BFCD0BFF35F8F01238340074A0848BD
:10141000136202789A430270BFF35F8F00230B6060
:1014200084F3108810BDC046280100D0004005405C
:1014300036180020024B9C466144890001607047C9
:101440004000003410B50400FFF7F6F90100200059
:10145000FFF7F0FFFF232371BFF35F8F10BDC0467E
:1014600010B50400FFF7E8F901002000FFF7E2FFE4
:10147000FF23A380BFF35F8F10BDC04610B50400EB
:101480000120FFF7E5F9034BC3189B002360BFF36E
:101490005F8F10BD4000003470B505000E001400D1
:1014A000002924D0002A24D080686B6898472968D6
:1014B00000280ED063001B197200033B9219CB1851
:1014C000033A9E7088188A5C002A14D10470300098
:1014D0000EE073009B196200033B1219CB18033A0C
:1014E0009C7088188A5C002A00D05A700670200010
:1014F00070BD0800FCE75A7004703000F8E7C04681
:1015000030B583600023CCB243730133047342606F
:101510008373C4730D000068012C06D9421C01338B
:10152000DBB2137003329C42F9D1FF2129404B00FA
:101530005918002340180338437030BDF8B5CE4623
:10154000474606000C0080B5002907D04D0003680F
:101550006D18033D5A195778002F04D120000CBC98
:1015600090469946F8BD7900C91903398846434425
:101570005978894600215970517073683A002100EA
:10158000806898473368002814D042469A189470AF
:1015900059195B5D002B00D053700F70270049462E
:1015A0003000FFF7CBFF390002003000FFF774FF77
:1015B0000400D3E7424641465D19AF709A185B5C60
:1015C000002B00D06B701470E9E7C046F0B55746A9
:1015D0004546DE464E46E0B50D006B0001685B19DE
:1015E000DF1E0400C85D83B00192CA1900284CD0E8
:1015F00043001B18033BCB185E78B446002E16D16F
:10160000019E002E3ED0E67B002E04D073009B1975
:10161000CB18033B5D70E57300282FD10023537076
:1016200003B03CBC90469946A246AB46F0BD720062
:101630006244033A89184A78904600224A709146DB
:101640005A70010032002000FFF726FF4346824611
:10165000002B07D05B0021684344033BCB185A782A
:10166000002A16D1424651462000FFF715FF216897
:10167000019BCA19002BC6D10028CFD043001B18EC
:10168000033BCB1800219970C8E7019B002BBAD10E
:10169000C4E7500080180338091848788346484644
:1016A0004870587041462000FFF7F6FE59468046C4
:1016B0002000FFF743FF414602002000FFF7ECFE49
:1016C0008046CFE7F0B54E464546DE465746E0B584
:1016D000467B040075000068AD19033D83B001919D
:1016E000415D421900294ED04B005B18033BC318E3
:1016F0005F78BC46002F18D1019D002D40D0E57BBE
:10170000002D04D06B005B19C318033B5E70E673B9
:10171000002931D1002330005370617303B03CBC09
:1017200090469946A246AB46F0BD7A006244033A21
:101730008018427893460022427091465A702000E9
:101740003A00FFF7A9FE5B468046002B07D05B00FE
:1017500021685B44033BCB185A78002A17D15A46BC
:1017600041462000FFF798FE019B010020684219C6
:10177000002BC4D10029CDD04B005B18033BC3180C
:1017800000209870C6E7019B002BB8D1C2E750003B
:1017900080180338091848788246484648705870BF
:1017A00059462000FFF778FE53468346002B07D0AA
:1017B0005B0021685344033BCB185A78002A06D1BA
:1017C000594652462000FFF767FE8346C7E75000A0
:1017D00080180338091848464F78487058705146A9
:1017E0002000FFF759FE390081462000FFF7A6FED2
:1017F000494602002000FFF74FFE8246E0E7C04660
:1018000070B5040000292CD0437B8B422ED0056894
:1018100048004018033828188278002A21D0530045
:101820009B18033BEA5CEE188A4202D11BE0002AB7
:1018300008D053009B18033BEB185A788A42F6D124
:1018400042785A7000230122837043702000FFF712
:10185000BDFE617B02002000FFF71EFE60730120C9
:1018600000E0002070BD43783370EBE701221900DF
:10187000FFF7ACFE60730120F4E7C0462C4B2D4A05
:1018800070B51A602C4A2D4B2D491A6010008B68D8
:101890009843FBD12B4C2C4B9C4209D2013B1D1B86
:1018A000AD080135AD002D1908CC9847AC42FBD1ED
:1018B00000F096F8254A214B1A60214A9368DB0113
:1018C0008033FBD14022224B224C234D9A675A672A
:1018D0001A67DA66AC4208D223682000002B21D0B8
:1018E0000834FFF7BDFDAC42F6D31C4C1C4DA1687B
:1018F000C022280001F0F8FEA560FEF78FFF00F07F
:1019000055FBFFF755FA174C174B9C4209D2013B88
:101910001D1BAD080135AD002D1908CC9847A54217
:10192000FBD170BD0834FFF78DFDAC42D4D3DCE7AA
:1019300000E00040BFCDFBFEFE7F3C0000F0004019
:1019400000C00040200D0020300D0020FFFFFF01EF
:1019500000F00140180D0020200D002000ED00E0F7
:1019600000000020300D0020380D0020094A03003F
:101970001068002805D00849C3188B4207D81360A7
:10198000704706480449C31810608B42F7D90120FC
:101990004042F5E7D0130020000004202C1B00205B
:1019A00000BEFDE70FB400B5084883B001F0C6FFE4
:1019B000049B002B07D005A91800019100F0CCFB77
:1019C000034801F0BBFF00BEFDE7C046380F011021
:1019D000480F011010B50148FFF7E4FF4C0F01104C
:1019E00030B50C2083B000F047FBFEF70FFF002856
:1019F0000ED0944B944A1A605A609A60DA601A6169
:101A00005A619A61DA611A62904A5A6203B030BD33
:101A10008F4CA06700F084FB01228E4B1A60636C30
:101A2000012BFCD103228C4B1A60894A936B012B4A
:101A3000FCD102240121894A89480533009400F031
:101A4000C7FA0523874A01218748009400F0C0FAAD
:101A5000864B5A68FF2A02D8802252005A608022A0
:101A6000784C7D4B21691201804D1A60002905D008
:101A7000606900F0E7FB01300138FDD1E0217B4BCC
:101A800002201A681140802252012A43116019680D
:101A9000484003210140116004219A681142FCD0A2
:101AA0008022802192012A43090111608022520084
:101AB0005A606F4B23616F4B5968FF2900D85A60F9
:101AC00003226C48634B01211A600200936819429B
:101AD000FCD0E02513681D4080235B0103431D609B
:101AE00012684A400321114019600221614A93683B
:101AF0001942FCD0802380219B0103430901196016
:101B000080215D4B4900516063615C4B5A68FF2A3C
:101B100000D8596080225A4BE1691201574D1A6072
:101B2000002905D0606900F08DFB01300138FDD13E
:101B3000E02252490B681A4080235B012B431A6054
:101B4000802380229B012B4312011A6080223E4B8E
:101B500052004A60E3614B4B5968FF2900D85A6034
:101B60008022494B216A1201464D1A60002905D096
:101B7000606900F067FB01300138FDD1E022414986
:101B80000B681A4080235B012B431A60802380225C
:101B90009B012B4312011A60802380225B004B6063
:101BA000294BD2022362394B5968914200D25A60C4
:101BB0008022374B616A1201344D1A60002905D02A
:101BC000606900F03FFB01300138FDD1E0222F4970
:101BD0000B681A4080235B012B431A60802380220C
:101BE0009B012B4312011A608023DB024B60174BD1
:101BF0006362284B5A68FF2A02D8802252005A603A
:101C00008022254BA1691201224D1A60002905D0BE
:101C1000606900F017FB01300138FDD1E0221D4959
:101C20000B681A4080235B012B431A6080238022BB
:101C30009B012B4312011A6080235B004B600E4B0B
:101C4000A361E3E638130020006CDC021BB7000040
:101C5000008000403CB0004030B00040002F685988
:101C60000080024000389C1C00C0024030800040D0
:101C7000001BB7003C80004040597307548000406F
:101C800054B000406080004060B000406C80004074
:101C90006CB000404880004048B00040014B8000DC
:101CA000C05870473813002001238340002904D016
:101CB000034A1360034A13607047034A1360FBE74B
:101CC00080E200E000E100E080E100E001238340E9
:101CD000014A13607047C04600E200E0024B10303A
:101CE0009B688000C058704700ED00E070B50D00A3
:101CF000EFF3108672B60F4A1368002BFCD0BFF3C7
:101D00005F8F0D4B10309B6884001B590B4A934228
:101D100003D09D4201D0FFF75DFE074B9B681D512C
:101D2000BFF35F8FBFF35F8F0022024B1A6086F311
:101D3000108870BD240100D000ED00E0CD0100103E
:101D4000F0B5DE4657464E464546E0B50C0083B03A
:101D5000EFF3108A72B65A4A1368002BFCD0BFF317
:101D60005F8F1022914681444A46564B96009B68ED
:101D70009D59554B98469D4205D0A54216D0534FCC
:101D8000EB1B2F2B14D94F4B9B689D51BFF35F8FDB
:101D9000BFF35F8F00224A4B1A608AF3108803B0AA
:101DA0003CBC90469946A246AB46F0BD1D00EAE712
:101DB000012383409B465A46454B1B681A400092BC
:101DC0005A46444B1A60BFF35F8FFEF74CFA0190FE
:101DD000002803D0814501D0FFF7FCFD01232A0034
:101DE0009A4393689C4208D160E04B005B189B00CB
:101DF000FB189968A14211D01A00062151560029FA
:101E0000F3DA009B002B05D05A46334B1A60304B57
:101E10001A60B8E75A462F4B1A60B4E706215956A4
:101E2000002922DB4A00501880003C188046A06838
:101E30009860E079D871062020569871A0797F28A3
:101E400024D8A488F81A6405241544440019E02411
:101E50000005400D24022043988052181F4B920029
:101E6000BF181A781970BA71CBE70199002910D1FF
:101E7000FF3191711A49918018490A789A71194A6B
:101E8000DB1B5B415A43120D0A70BAE7BD2000020A
:101E9000E2E7154A1549D21A083A5002400D0143AB
:101EA0009980134952080A43DA80AAE7062151565D
:101EB00013000029B6DA019A002AEAD14546DBE789
:101EC000240100D000ED00E0CD010010FC03002053
:101ED00000E100E080E100E080E200E03418002052
:101EE00000BDFFFFAAAA00003604002000F0FFFF9B
:101EF00000F8FFFFF8B5012504000543FEF7B3F92C
:101F00000300EFF3108672B621490A68002AFCD05C
:101F1000BFF35F8F1F4A20001F49801A4041414391
:101F2000090D1E489B00876849B2FF58AF421CD07C
:101F30000623D3568B421CD01223D3568B4222D079
:101F40001E23D3568B4220D02A23D35603208B4204
:101F500010D0134B1A781970A271BFF35F8F002253
:101F60000B4B1A6086F31088F8BD82680D48D0507C
:101F7000EFE7002043001B189B00D218FF2393714A
:101F8000094B9380E5E70120F4E70220F2E7C04621
:101F9000240100D0FC030020AAAA000000ED00E00C
:101FA00034180020CD01001000BDFFFF054B064A8C
:101FB0001360064A136053609360D36013615361EA
:101FC000936170478080808000E400E004E400E0DA
:101FD000F8B504000C2017001D000E0000F032F9C7
:101FE0004101091A8B01591AC900091889013800E1
:101FF00000F028F9069A2B04120313432268002AE2
:1020000021DB194AA21851424A41802149018C46DC
:1020100052420A40154962440A6015490A6015494E
:1020200017008D68AF43FBD1C021221D89011143E8
:1020300021222660A0600A602268002AFCDAE360A0
:1020400008230B60F8BD3F2221680A40B242D8D174
:10205000A2681205120D8242D3D1EE21E268C902B4
:102060000A409A42CDD1EDE70040FDBF00E00040BC
:1020700000F0004000C000408023024A9B00034360
:10208000D36270470080054010B5140080221B4BBE
:10209000D2051A6000281AD00123194A1843194B97
:1020A000DA61194A42401A62596298628022134BDF
:1020B000D2051A601549164A1160E022D2041A604E
:1020C000002C07D18022134B12061A6010BD0D4B55
:1020D000D861EBE780236201121B920012191201F2
:1020E0005B049A4200D30C4A0C4B1A60054B5A60B1
:1020F0008022084BD2051A60E8E7C04600B00540D0
:10210000D3C007B0008005402D3FF84FFCFF010011
:102110000820014000A00540FFFFFF00D817002065
:10212000AA23064A1B0113602F230549D360054BE0
:1021300019605368002BFCDA7047C046004002402B
:1021400000B0FA000060024010B5002800D110BDB8
:1021500001F0A2FBFBE7C04610B5094A0300146872
:1021600084B0002C08D0012200910648524203A9F5
:10217000A047012004B010BD01F0E0FB0020F9E70A
:10218000D41700204921001001480421014B1847B1
:1021900050040020B9210010142310B50100188844
:1021A00004331B88984710BD162310B5010018880A
:1021B00002331B88984710BDF0B5C64600B500290C
:1021C00016D01423040001259846182789004618C4
:1021D0004346216818883B88984701C4431E9841AC
:1021E00040420540A642F3D1280004BC9046F0BD11
:1021F0000125F9E7124A936F9B0815D29066D166C4
:10220000002905D0FFE7FFE7FFE7516F106F704728
:1022100004B580210906C2175140002800D0C843E8
:1022200008F02EFB002104BDF0B5146E556E576FFB
:10223000166FFFF7E3FF1466556657671667F0BD24
:10224000000000D0114A936F9B0813D210665166AC
:10225000002905D0FFE7FFE7FFE7516F106F7047D8
:1022600004B5002801D00020C04308F009FB00217C
:1022700004BDC046F0B5146E556E576F166FFFF76C
:10228000E5FF1466556657671667F0BD000000D07D
:1022900044464D4656465F46F0B47047F0BCA046F3
:1022A000A946B246BB46704748404140484018B432
:1022B0001B4B5B68FC46019308BD04DFAB28001094
:1022C00018B4174B1B68FC46019308BD00DFB52806
:1022D00000109446134A926F920809D2624618B4CD
:1022E0000F4BDB68FC46019308BD0CDF6D2B001023
:1022F0000C4AF0B5146E556E576F166F6246FFF7B5
:10230000EEFF084A1466556657671667F0BD18B4A5
:10231000034B9B68FC46019308BD08DF112A00109F
:1023200044180020000000D0FFB55040424050400B
:1023300059404B40594000E0FFB5154F4C00640D2B
:1023400003D0BC4204D10C0314D80020090D0905A8
:102350005C00640D03D0BC4204D11C030AD80022E7
:102360001B0D1B0501264B4009D44B4003D58B4266
:1023700000D18242FFBD9942FCD19042FFBD0B4388
:10238000DB1803431343F5D0C9434918FFBD0000D0
:10239000FF07000000B5FFF7CFFF804100BDC0463A
:1023A0000021002805D17047C1174840401AFAD0D3
:1023B000C90713B5064B1B6898470CBC441CA240C8
:1023C0001005120B0349091B09051943114310BDE0
:1023D000F81700201F04000018B4044B1B6EFC46C5
:1023E000019308BD60DF4B3000100000441800204E
:1023F00018B4044BDB6FFC46019308BD7CDFD52F7E
:10240000001000004418002018B4044B9B69FC46DF
:10241000019308BD18DF392D00100000441800207A
:10242000024A034B00B500F01FFA00BD182D4454BA
:10243000FB2119408A0002D3920D092A08DA18B448
:10244000064BDB6BFC46019308BD3CDF7F3100107F
:1024500000B5FFF7E5FF04BC9646F0E744180020FE
:102460008A0002D3920D092A08DA18B4064B1B6CB5
:10247000FC46019308BD40DF8F31001000B5FFF727
:10248000CFFF04BC9646F0E744180020132370B534
:102490001D78012D15D010DD2748FFF785FE274C4C
:1024A00001008022200001F01FF9022D06D02448EF
:1024B000FFF772FE234B186070BD204C224AA264C5
:1024C000F5E72E001D4C204AA3085B421E401D422A
:1024D0002FD0330022602020B1006118801B0A60D9
:1024E0004A608A60CA600A614A618A61CA610A6296
:1024F0004A628A62CA620A634A638A63CA630A6476
:102500004A648A64CA640A654A658A65CA650A6655
:102510004A668A66CA660A674A674008102803D175
:102520008A67CA67A264C2E71E339B00E250A264B6
:10253000BDE70023CFE7C046534400004418002005
:102540004C330000F817002079280010F0B5C6467B
:102550004B0004000D0000B55B0D2DD01D4A9B18EB
:1025600025D43426F31A9846002B1DDD202342463D
:102570005B42D71828D4333EBE403300012746467D
:10258000B7403A00002906DA01246442E51724180E
:102590004D41A4185D41002756429F41230033401E
:1025A00018002B003B40190004BC9046F0BD0020F1
:1025B000002907DA0849F7E70022C90FCB07100006
:1025C0001900F1E70021EFE720270126BF1AFE409E
:1025D0003300D3E701FCFFFF0000F0BFF0B5574622
:1025E0004E464546DE46E0B587B002925A009A460E
:1025F000530D9946109B4D0004006D0D002B01D02A
:1026000000221A60954A954200D1AFE04B46002B5C
:1026100000D1ABE0002D00D1ABE0914500D19DE0B1
:10262000013B0393AB4200DD98E0CB0F0E039846CD
:10263000330B9B4680235B039C465B4662461343F9
:102640001F005346060018036346000B0343029A1B
:102650000193039B0092AB4256D04346002B00D11E
:10266000BBE033003C0000275E42A7414B46ED1A19
:10267000002D00DCC7E00120019B40421911FFF74B
:10268000E1FD002398464B4603935346AB46029028
:1026900004931BE032009A401500330052469340E9
:1026A0001C004B464846D917009A019B00F0F0FEEB
:1026B0004346524693404B4498465B4626002F00C3
:1026C0009B1A361A8F419B46002B55DD5B46DA4636
:1026D0000C2B01DD0C239A46029ABB115343514641
:1026E0001D22521A1341202201335B105242994697
:1026F0008B18CFD5202332005B1ADA4013003A0042
:102700008A4015001D43C8E7019B9F4205DC009AE3
:10271000019B9F4222D1964220D9009801994346BD
:1027200000184941002B00D082E0039B361A8F41EC
:102730009946012398465346002B02DA43465B42F2
:102740009846109B002B01D042461A604B46444AE3
:1027500030003900D21AFFF73FFE0400200007B016
:102760003CBC90469946A246AB46F0BD00243D498C
:10277000F4E700240021F1E7039B9946049B9A4665
:10278000009B019CBC4250DC4CD0009B019CF61A83
:10279000A741BC4259DC55D0009B019CF61AA741C9
:1027A00002239C46E0443200009801993B009219B4
:1027B0007B418B4209DC23D000998A42BBD1019A2C
:1027C0009342B8D14346DB07B5D5009B019CF61A6E
:1027D000A74101239C46E044ADE74B46ED1A002D8E
:1027E00000DD48E7019BBB42DDDC009B019CBC4255
:1027F00001D1B342D7D8009B019CF61AA74124E02F
:102800008242E2D8D8E700239846009B019CF61844
:102810006741002F1DDAF618674102235B429C4690
:10282000E044C0E7009BB342AFD9002FEDDBBAE72D
:10283000039B801BB941994601235B4206000F00B0
:10284000984678E7009BB342A6D901239C46E04412
:10285000A9E701235B429C46E044A4E7FF07000090
:10286000330400000000F07F10B5002482B0009413
:10287000FFF7B4FE02B010BD07B5604601880A0A32
:102880000230DF2AFAD1C9B2820804D30288408814
:102890000004104300E00068014A5050039007BD57
:1028A000441800200FB403BC0CBCF0B50124E407AD
:1028B000634000E0F0B50C0DCF0F661E3605891B96
:1028C000640503D3C943404200D30131640D03D0F2
:1028D000661CF60A07D0E41B00207F00791C8907DC
:1028E0008912803C24031D0DDF0F6E1E36059B1BD5
:1028F0006D0503D3DB43524200D301336D0D03D08A
:102900006E1CF60A07D0ED1B00227F007B1C9B0784
:102910009B12803D2D032F1B661B58D4A446202EEE
:1029200046DA20371400BC401D00BD40F240334160
:102930002A4380185941CB0F05D0C943C043002218
:1029400064425041514162464D0D28D10D0D07D1D1
:1029500000281FD0241940414941013A0D0DF9D0FA
:10296000640006D3013000D30131002C01D14008AE
:102970004000013A0BD4941CE40A04D1120511441E
:10298000DB071944F0BDD907204B194300E0D907F4
:102990000020F0BD0029DDD1002CDBD1F0BD0132DB
:1029A000C6074008CD0728434908002EE1D0D9E7E3
:1029B0003C2E29DA203E40371400BC4000D00124D0
:1029C000F24014431A00BB401C43D317ACE7AC469B
:1029D000202F08DA20360400B4400D00B540F8403E
:1029E00039412843A5E73C2F0CDA203F403604004C
:1029F000B44000D00124F84004430800B1400C4327
:102A0000C117EAE710001900002494E70000F07FE6
:102A1000F0B50C0D661E3605891BE60A6405640DCB
:102A200002D0651CED0A04D0002001210905803C7C
:102A30002403A4461C0D671E3F05DB1BE70A640543
:102A4000640D02D0651CED0A04D0002201231B0591
:102A5000803C24037740644497B484B296B27443B4
:102A6000070C7E43150C6F4380B26843361802D3BF
:102A7000012000043F183004350C00197D418446C4
:102A800088B29AB250430C0C62431F0C7C438EB246
:102A90007E43921902D301263604A4191604170C9A
:102AA0003618674101BC81B29AB25143040C6243AB
:102AB0001B0C5C4380B25843121802D3012000045F
:102AC00024181004130C401863412D185E41002097
:102AD000474106BC88B293B258430C0C6343120CB6
:102AE000544389B251435B1802D30121090464188D
:102AF00019041A0C091862416D185641002047410B
:102B000018BCF902720D1143F0026A0D1043ED0278
:102B10000A0D03D16D1940414941013B124E9B1BE7
:102B20007600B3420ED26D0007D30130002671410A
:102B30006646354301D1400840001B05C918E4072B
:102B40002144F0BD0BDA013306D1013004D101314B
:102B50004F0D01D04908F2E7E1070020F0BD013632
:102B600031050020EBE70000FF030000F0B51C0D6D
:102B7000671E3F05DB1BE70A6405640D02D0661C77
:102B8000F60A04D0002201231B05803C2403D02533
:102B90002D060026F6432E661E096E66CE0FF61928
:102BA000B44649004F0D02D07E1CF60A03D0002027
:102BB0000021403F3F033E1BB600B444013F7F0568
:102BC000C91B49082E6F013676089C02950D2543D6
:102BD0007543ED137543AD1301356D10F603761B88
:102BE0000CB4CC02450D2C43A2B2B3B25A43270C0D
:102BF0007B43350C6F43A4B26C431B1902D30124F1
:102C000024043F191C041D0CA4187D4124196D4196
:102C1000009A91B2ACB26143170C7C432B0C5F431A
:102C200092B25A43A41802D301221204BF182204FC
:102C3000230C52187B41019C6C431B19520ED90185
:102C40000A434401A01A81B2B2B2514303145A4359
:102C5000360C734387B27743D617D21900277E41CB
:102C600036049B191704160C7F185E417316ED1875
:102C7000F301002680337541A90F06D16400690A6B
:102C8000E8055B0A184309D22FE0042294448033FC
:102C90007541A90AA8059B0A184326D3404149411A
:102CA0002404009A019B0D005543641B4343E41A1E
:102CB00095B286B27543170C7E43030C5F4392B204
:102CC0005A43B61802D301221204BF183204330C3F
:102CD00052197B4152429C41002C02D40022013007
:102CE00051414008CA071043490802B06246D7075D
:102CF0009210084BD218084B9A4203D21205891839
:102D0000C919F0BD0020002A01DC3900F0BD0133F3
:102D10001905F5E7FD030000FE07000007DA0021B2
:102D200007E0C90FC907520D03D0C91201E04C4991
:102D3000090500207047C0464A00F2D2520D013A00
:102D4000484B9A42EAD2F0B51405091B520801D348
:102D5000001849419B08D2181205944640A44A0C19
:102D6000A25C0B09534353431B1353435B131202DF
:102D7000D21A13005B435B0B4C086343DB135343D2
:102D8000DB1501335B10D21A130CD21A13005B430C
:102D90008902840D21438DB29EB275430F0C7E4390
:102DA0001B0C5F438CB25C43361902D3012424040C
:102DB0003F193404330C64197B419D01A40E2C434C
:102DC0002034A5B25543241454432D0C6419A41186
:102DD000D203121B95B28EB27543170C7E430C0CB6
:102DE000674393B26343F61802D301231B04FF1811
:102DF0003304340C5B197C41DB186441DB1800237D
:102E000063419EB276439DB21F0C7D437F436C04A9
:102E1000ED0BA4197D4106028F08361BAF417D07DB
:102E2000F6086E41B4B295B26C4337147D43120C70
:102E30005743B6B25643EA17AD1900267241120441
:102E4000BF182E042A0C36197A410832521117D2B3
:102E50009D0A9C05D117101969416144F0BD00001D
:102E6000FF070000FE070000F8EBDFD6CDC5BEB8B7
:102E7000B2ADA8A4A09C9995928F8D8A88858381F4
:102E800052415D0ADC05D11714194D412B006343F3
:102E9000A6B27643A2B2270C7A437F435104D20BE9
:102EA00089197A41D218D21880054942904102D43A
:102EB000002301345D4160086908ED07284361443F
:102EC000F0BDC046624618CA94465A46002A20DB26
:102ED00004E0624618CA944600291ADAC018614113
:102EE0005B463B415C46B4405246FA40224344466E
:102EF0004D4662416B41904699462B46B3403D4159
:102F0000FC401C4352465B46A241AB4192469B4665
:102F10007047C01AA1414B463B414C46B440424623
:102F2000FA40224354465D4662416B4192469B46BD
:102F30002B46B3403D41FC401C4342464B46A24118
:102F4000AB41904699467047002200B500F00DF85D
:102F5000CA179A4200D100BDD8430121C907414098
:102F600000BD000000220B150AD410B5944600F0F5
:102F7000A7F81414013400DA0021CB17144C2047B1
:102F80000020002170476244343A0CD40C2A07DA3E
:102F900004009140904052422032D440214310BD61
:102FA000D843D94310BD203207D40C469440524236
:102FB00020321141D040204310BD0800C9172032F3
:102FC00003D452422032104110BD1800190010BD28
:102FD000872F00104A00520D144BD21A13DDFF2A1E
:102FE0001EDAD205CB0FDB071A43C300400F0903DB
:102FF000490A084310435B0001D301D001307047F8
:103000004308FBD2704702D0C80FC00770470A03BD
:1030100012130132F8D1420F072AF5D1012200E044
:10302000FF22C80F00028018C0057047800300000F
:1030300000210A00002104E000210A00C11704E079
:103040000022002306E0C0460022CB17584059401A
:10305000C01A994130B5184CA21A002903D10100B9
:1030600010D00020203A4C1512D104D2013A001899
:1030700049414C0DFAD3114CA24204D212058918D1
:10308000DB07C91830BDD243520D00200021F5E7FF
:1030900003D4013A00184941FBD50B324405C00A5C
:1030A0004D052843C90A640003D0002460416141F2
:1030B000E1E7E0D34408F8E732040000FE0700002F
:1030C0000A0DCC0F531E1B05C91A520503D3C94361
:1030D000404200D30131520D03D0531CDB0A07D00C
:1030E000121B00206400611C89078912803A1203B8
:1030F000014BD21A70470000FF030000023225D4B2
:103100000C2A1CDA1125AD1A0B002B4108320735A9
:103110000600EE40904091403143F0CC63431A15D5
:1031200000235A41554356435743BF02F4127605D4
:1031300076196741ED177F19801BB94170470C2242
:103140000020C917490001310905DBE70902030E18
:10315000194300025342203208D40C001941944014
:10316000D840204300225041514170470800C91700
:10317000203B2032F1D50020002100227047F0B51D
:10318000FFF786F800F00EF800F030F806E0F0B532
:10319000FFF77EF800F006F800F046F8FFF77EF83B
:1031A000F0BD000000B5FFF78BFF30A4FFF7A6FFCE
:1031B00000242C4D2C4ED20702D3F6436D426641BB
:1031C000520004D2A246A346A846B14603E0A04658
:1031D000A146AA46B3466EA4A44601271F26FFF7C0
:1031E00078FE0137013E212FF9D100BD594684B246
:1031F0008DB26C43061475430B145E4382B25A437E
:10320000AD18EA1700D7D2431204B6182A042B0CC3
:1032100012197341404649469D009B17920F2A435D
:10322000904199413E2210E7494684B28DB26C43E9
:10323000061475430B145E4382B25A43AD18EA1765
:1032400000D7D2431204B6182A042B0C121973416A
:10325000504659469D009B17920F2A4350415941B1
:103260003E22F2E6BB4DF09DC556F6367D5100007C
:103270001A61140085880A00FB211900F0B5FFF7D8
:1032800007F8404D0C002C4001D0AC4202D1090D92
:10329000090500201C002C4001D0AC4202D11B0DBE
:1032A0001B0500220026ED02002B04D502266B40F0
:1032B000694000D476424F1904D599420CDD01369D
:1032C000694003E0BB4207DA013E6B400700100093
:1032D0003A000F0019003B0040B4002A0FD1002B28
:1032E0000AD05C006415013409D14C006415013426
:1032F00002D10139013B02E0002000212EE0FFF75E
:1033000035FC3E22FFF721FE82468B46002000213D
:1033100080460122920791461DA4A44601271F263C
:10332000FFF7D0FD0137013E212FF9D14A46534620
:103330000C3A01246407002752081B0005D493416E
:10334000001979416408F7D104E05341001BB941E9
:103350006408F1D1CE0749104008304340BC002E2C
:103360000AD0094C094D01D5E443ED43F60701D1DC
:1033700000196941001969413D22FFF766FEFEF719
:103380008DFFF0BD0000F07F8D305A88A8F64332E3
:10339000694FBB610567AC1DB16E4096FCBAAD0FBD
:1033A00072DB0BABA66EF50739BD9FE576ABFE036E
:1033B0004B6297BA5BD5FF01D694DBDDAAFAFF001A
:1033C0005DEAEE5655FF7F006E77B7AAEAFF3F0031
:1033D000BCBB5555FDFF1F00DEADAAAAFFFF0F00C5
:1033E0006F5555F5FFFF0700ABAAAAFEFFFF0300CC
:1033F0005555D5FFFFFF0100ABAAFAFFFFFF000004
:103400005555FFFFFF7F0000ABEAFFFFFF3F0000C5
:1034100055FDFFFFFF1F0000ABFFFFFFFF0F000088
:10342000F5FFFFFFFF070000FFFFFFFFFF030000A6
:103430000000000000020000000000000001000089
:1034400000000000800000000000000040000000BC
:10345000000000002000000000000000100000003C
:103460000000000008000000000000000400000050
:103470000000000002000000000000000100000049
:10348000000000800000000000000040000000007C
:1034900051434343C9188C46110C83B24B4310B4BB
:1034A000040C614392B280B2504362431C041B0C73
:1034B000001910BC59411304120CC0185141614449
:1034C000704700004840414048400E4B5B68184739
:1034D0000C4B1B6818470C4A936F9B0802D2094B90
:1034E000DB681847F0B5146E556E576F166FFFF70F
:1034F000F6FF054A1466556657671667F0BD014B1F
:103500009B68184744190020000000D0491A002881
:1035100008D1084670470000C10FC90700D54042D6
:10352000002817D0F44603B40B4B1B68984706BC21
:1035300081409E384042803107D20B0607D04900B7
:10354000490AC0051043084360470130F8E7490ABB
:103550008902F5E770470000F8170020014B5B6A0D
:103560001847000044190020054A10470029FBD0E5
:10357000044B5B6EFC46184764DF2D3600100000DC
:103580000D35001044190020034BDB6FFC46184733
:103590007CDF71360010000044190020132310B5A1
:1035A00012481C78FEF700FE0100012C0AD003DD52
:1035B00080220F4800F098F80E48FEF7EDFD0E4B04
:1035C000186010BD0A4C5422200000F08DF80B4BFF
:1035D0006365A365E36523666366A366E3662367A5
:1035E0006367A367E3672362E361E5E7534600008F
:1035F000441900204C330000F81700200136001059
:1036000007B5604601880A0A0230DF2AFAD1C9B23A
:10361000820804D3028840880004104300E0006858
:10362000014A5050039007BD44190020002230B5D4
:10363000002906D5CD0705434808013A10E00022CD
:1036400030B505000D430FD0CD170C16AC4205D197
:10365000C901440E2143C0010732F6E70500080006
:1036600052423D320149884730BD0000EF29000039
:10367000C30FDB0741000A0E07D0FF2A08D0090953
:10368000054A891819434007704719000020704700
:103690000249C918FAE70000000000380000F07F76
:1036A00010B5040006F076FC002804D0034B041982
:1036B0009C4200D810BD0248FEF774F900000420B7
:1036C000580F011010B506F06FFC10BD0148042121
:1036D000014B184760040020B9210010014B1B6802
:1036E0001847000060040020014B5B681847000089
:1036F00060040020030010B508001B681100984703
:1037000010BDC046F8B54746CE4680B5437C07009D
:103710000D001600002B37D000240020002A1EDDEB
:103720004B1E98461B4B9946002C2BD043461B5DE5
:103730000D3B5A425341DBB22A5D0A2A13D00134B1
:10374000A642F1DC864203DD311A3B68281898470F
:10375000AD19013D2B780D3B5A4253413B740CBCD3
:1037600090469946F8BD002BE9D1A04203DA211A10
:103770003B6828189847484602213B68013498471F
:103780002000DDE73B7CD7E703681100280098475D
:10379000E5E7C046C80F0110F0B557464E4645460E
:1037A000DE461C00D023E0B51B061F68354B83B0F6
:1037B00006000D00180001A991469A4607F068F826
:1037C0008046002808D1019B7FB29F4204D050461A
:1037D00007F076F8012398466B1C03D1300006F001
:1037E000C9FE0500002C2AD1274F284B1C68002C4D
:1037F00018D04B46002B24D1254B994602E0E468B3
:10380000002C0FD02368002BF9D04B461B68002BEF
:1038100001D0A342F3D120002A003100B847E46868
:10382000002CEFD14346002B28D1681E8541E8B219
:1038300003B03CBC90469946A246AB46F0BD154F3E
:10384000D3E7134B99460A239B4602E0E468002C19
:10385000E8D02368002BF9D04B461B68002B01D021
:10386000A342F3D12A0031002000B8475A466B46E4
:1038700020001A7101A90122B847E7E7504606F077
:10388000F7FFD2E7180D002005370010C8130020FD
:10389000CC130020F5360010F0B54746CE4680B573
:1038A00083B06B46DF1CD02338701B061C68204B8E
:1038B000060001A91800984606F0EAFF051E22D06E
:1038C0001C4B1C68002C2AD01B4B994602E0E46874
:1038D000002C10D02368002BF9D04B461B68002B1E
:1038E00001D0A342F3D1200001223900FFF70AFFE3
:1038F000E468002CEED1002D11D1300003B00CBCD7
:1039000090469946F0BD019B64B29C420BD0404664
:1039100006F0D6FF074B01251C68002CD4D1404689
:1039200006F0A6FFE9E7034B1C68002CCCD1E4E7C6
:10393000180D0020C8130020CC13002070B504001F
:1039400006F018FE00230100050001222000FFF709
:1039500023FF084B1C68002C06D06368002B05D0A1
:103960009847E468002CF8D1280070BDE468002C6A
:10397000F3D1F9E7C81300200A4A1368002B05D1D8
:103980000CE01A00DB680C32002B07D09842F8D10B
:10399000002902D1C3681360C16070470029FCD0C0
:1039A0001060FAE7C813002010B500F045F800F0E9
:1039B0009BF910BDF0B50D1E15DD0E4B0D271A68D5
:1039C0000D4B4519D31859424B410C495B005E5EC3
:1039D00020210478A64207D093691942FCD1013016
:1039E0001460A842F5D1F0BD93691942FCD117606B
:1039F000F2E7C046181800200080FCBF40180020E5
:103A000030B50500002912DD00201024094B013DCE
:103A10001A6893691C4208D1013093691C42FCD199
:103A200013682B548142F4D130BD0028FCD103200F
:103A30004042F9E718180020E12110B50B4B0C4863
:103A40001B780C4B49021B780B4B1860FCF710FFDE
:103A500002210020FCF706FE02210120FCF702FEF5
:103A600001210648FFF788FF10BDC0465C12011017
:103A7000004003406012011018180020700400205C
:103A80007047C0460022014B1A707047351800205D
:103A90004B790020FF2B0BD18B79002B08D1CB79F0
:103AA000012B05D1082A03D98A78024B09301A70F4
:103AB0007047C046351800200120704770B50029B6
:103AC00015D115495379107909781B020343002059
:103AD000994200D070BD5378012B0AD0022BF9D146
:103AE000002064220021FEF7CFFA0120F2E7012036
:103AF000F0E79478D278050012021443D20502D57B
:103B0000620A93401D000548FEF746FB7F21030033
:103B1000214028009847C046351800205542000033
:103B200001230370004870470C1001104A780B788D
:103B300012021A438B7810B51B041A43CB781B066C
:103B400013439622D200934200D010BD0348FEF7E3
:103B500023FB0021030008009847C046554200009F
:103B600070B5184C82B006000D00200001A906F0C7
:103B70008FFE002808D1D0231B061B68019A9A42A9
:103B80001CD0200006F09CFE002001F003FE00285F
:103B900007D103256D42200006F06AFE280002B01E
:103BA00070BD002001F00EFE0028F2D02A00310086
:103BB000002001F013FE051EEBD0ECE703256D425B
:103BC000ECE7C04600180020F0B54F46D646464602
:103BD000C0B5354B82B007000D00180001A9994609
:103BE00006F056FE002808D1D0231B061B68019A58
:103BF0009A4252D0484606F063FE002001F0CAFD0A
:103C0000002842D00024002D44DD284B9A469846D7
:103C100011E03919002001F055FE060000F04CFEBD
:103C2000002001F013FEFDF713FB434618605960B6
:103C3000A419AC422EDA002001F05EFE2E1B020019
:103C4000B04200DD3200002AE3D100F035FE002052
:103C500001F0FCFD002001F09DFD00281AD000209D
:103C600001F04AFE0028E4D1FDF7F2FA53460E00B7
:103C70001A685B68002184460D4812184B419E4229
:103C800008D8D6D19445D4D904E000200021074BB0
:103C900018605960484606F0EBFD02B01CBC904627
:103CA0009946A246F0BDC04600180020380E0020FC
:103CB00020A107001F2010B5FEF708F8FA20002108
:103CC000800010BD10B5074C0021200006F0E0FD7B
:103CD000002800D110BD00F0EFFD200006F0C8FD67
:103CE000F8E7C0460018002070B51E4B84B01B7862
:103CF00002F012F81F201C49FDF7F8FF01211F20D8
:103D0000FDF7D2FF1948FDF79DFBFDF783F806008C
:103D1000FDF79EFAFA2204000D000023920012190A
:103D20006B41994214D811D00121029100210191D7
:103D30000F4930000091FDF771F80400631E9C41AB
:103D4000E4B2002808D1200004B070BD9042EBD945
:103D500001225242D317E7E701210648FFF70CFE84
:103D6000F1E7C04664120110C53C001000180020A5
:103D7000B53C00108404002000487047C4100110B6
:103D8000004870477010011070B5040016480378A1
:103D9000002B20D0002C06D1C1241448144BA400C1
:103DA0004380048070BD052C1CD8124B0F48A40022
:103DB000E558811C002304E001330A800231132BF3
:103DC0000DD0EA5CDCB2002AF6D1C02301346400D5
:103DD0009B001C43E5E7112102F030FADAE7CA2420
:103DE000A400DEE70020DDE71C180020A01300205F
:103DF00009040000D8100110F0B598235746454635
:103E0000DE464E466C4AE0B5D75880253C006D0230
:103E1000883B9A4683B02C402F420FD001222321A9
:103E2000664B00205A54DA70654901F075FA802219
:103E3000644B92021A65644B2C009A46FB0617D419
:103E400080235B011F4245D18023DB011F4200D04C
:103E500088E080231B021F4200D091E0BC4200D0CA
:103E6000A5E003B03CBC90469946A246AB46F0BDE7
:103E7000514B9B6D9846002B27D0524B00259B46FB
:103E80000123994643460126B8461F0004E0013548
:103E90007600EDB2202D17D03742F8D05B469E65F4
:103EA0004B466C08AB436400E418444B64019C46E9
:103EB0006444200000F08CFB00286CD10135B7432E
:103EC000EDB27600002FE5D1474680235B015446D2
:103ED0001F42B9D01C430023374A00211360384ADF
:103EE0003A489360D3603A4A9360D360394A93600A
:103EF000D360394A9360D360384A9360D360384ABC
:103F00009360D360374A9360D360374A9360D3603D
:103F1000364A9360D360364A9360D360354A9360E3
:103F2000D360354A9360D360344A9360D360344A97
:103F30009360D360334A9360D360F0229200FFF71E
:103F4000CDFB314B314A00211A600020012201F0E3
:103F5000B9F980221B4B12031A658023DB011F4233
:103F600000D176E70122042100201C4301F01AF958
:103F70001022144B1A6580231B021F4200D16DE7EB
:103F80000122052100201C4301F00CF980220D4B79
:103F900012011A6562E74B46A28AA17800200093BD
:103FA000002301F0E1F9200000F050FA86E721003B
:103FB00017487940FDF7F6FC00001150D41300209B
:103FC00000001050003011501000010014140020A7
:103FD0000800105010001050180010502000105011
:103FE0002800105030001050380010504000105081
:103FF00048001050500010505800105060001050F1
:104000006800105070001050DC1700208001105024
:10401000F010011010B501210520FDF745FE10BD7F
:1040200010B500220021024800F036FA10BDC0464B
:10403000F41300208022024B5202DA647047C0461B
:1040400000201150F0B5C64600B5060000F0D8F9C2
:104050000C23364D0520AB673549FDF747FE40235D
:104060009846344C402200212000FFF737FB4146A0
:104070000023012700222120A1832F49677063803C
:10408000A277A1600B6022545F3060844046A08715
:104090000238225429492A4A6360E160A26213600F
:1040A000284A6362E1629360D360274A20009360EC
:1040B000D360264A00219360D360254A4030936044
:1040C000D360244A9360D360234A9360D360234A29
:1040D0009360D360224A9360D360224A9360D36096
:1040E000214A9360D360214A9360D360204A936051
:1040F000D360204A9360D3601F4A9360D3601F4A05
:104100009360D360F0229200FFF7E8FA1C4B1D4A3F
:1041100030001A6080239B052F64EB6490231A4AB9
:10412000EA50FFF787FF04BC9046F0BD0000115035
:10413000F93D0010D41300208400105000011050ED
:104140008000105000001050080010501000105057
:10415000180010502000105028001050300010504F
:1041600038001050400010504800105050001050BF
:10417000580010506000105068001050700010502F
:10418000DC1700208001105010D001000B785B0676
:1041900002D14B78052B00D070478A78014B1A600A
:1041A000FAE7C04600001150F0B5CE464746072357
:1041B00080B548798E780A790340C8787F218007D6
:1041C00031401B02F40913434F00820F944691467D
:1041D0002A4D3A195201AA18967001266640567067
:1041E000604600269383D6709077CA00012C29D0B0
:1041F00023488446880162448446AC446046826019
:104200001660002929D01F4AC900904641444160E8
:104210003F223F3393434A46022A00D15B001A49AA
:104220003F190A687F01D3180B60184BED195340F2
:10423000EA604A469006184380231B0618436B68C1
:10424000186010E012488446880162448446AC44F9
:1042500060468262166000290AD1002364012D198C
:104260006B600C4BEB6001200CBC90469946F0BD96
:10427000064AC900904641444162C9E7D413002070
:104280008400105004001050DC1700200000105073
:10429000800010500001105000231C4A10B593609C
:1042A000D3601B4A00219360D3601A4A1A48936076
:1042B000D3601A4A9360D360194A9360D360194A55
:1042C0009360D360184A9360D360184A9360D360B8
:1042D000174A9360D360174A9360D360164A93607D
:1042E000D360164A9360D360154A9360D360154A31
:1042F0009360D360144A9360D360F0229200FFF77A
:10430000EDF9124B124A1A6010BDC0460000105061
:104310000800105010001050141400201800105005
:10432000200010502800105030001050380010505D
:1043300040001050480010505000105058001050CD
:10434000600010506800105070001050DC17002002
:104350008001105010B57F200C0020404000E4097F
:10436000110000191A00034B4001C01800F094F826
:10437000012010BDD41300207F23180010B5084081
:104380000B420BD0C9098022400040180649400169
:1043900040181201002100F05FF810BD0223034A0B
:1043A000C9095B1A9366EEE7D41300200020115070
:1043B0007F23180010B508400B4200D110BD002328
:1043C0004000C90941180448490140180022034926
:1043D000C37000F041F8F1E7D4130020FFF7FFFFAE
:1043E0007F2110B58078044AC3099B0001409A5888
:1043F0000248FDF7D7FAC0469804002004110110C6
:1044000080220D4B520410B51A600C4B0C491A60F7
:1044100010008B689843FBD10A4C9C22002120009D
:10442000FFF75CF98022002152010748FFF756F997
:104430000923636710BDC04600E0004000F0004063
:1044400000C0004000001150000010500023037411
:10445000438283828361704710B58368002901D04D
:104460001C682140002A11D08024E400114322421C
:104470000CD01A6822420BD1064A0A401A60FFE7A4
:10448000FFE7FFE7FFE7FFE7FFE78368196010BD7D
:10449000FFF7A6FFFFFBFFFFF0B5C646002300B500
:1044A000838201330374436804001E68838B816137
:1044B0001F1C934200D9171C8025BFB2D21BE37882
:1044C00092B2ED0062823D43002B02D09025AD01F7
:1044D0003D4301204340E3706378002B51D0002A14
:1044E0001DD1A023DB011D43354B1B6C354B3340E5
:1044F0008026B6051E436368A2681E6013685B05CC
:104500005AD4314B2B401360FFE7FFE7FFE7FFE78B
:10451000FFE7FFE7A3681D6004BC9046F0BD802361
:104520005B011D43264B1B6C9B0703D4A378DB095F
:10453000012BDBD1A38B191C934200D9111C8027BE
:104540008BB2FF00D21A98461F43E37892B2628280
:10455000002B03D090274146BF010F4301214B4060
:10456000E3706378002B19D0002A02D18023DB018D
:104570001F43164B3F043340A026F6053D431E4320
:10458000B9E73A00E068FFF7AFF8A369628A9C4692
:10459000802367441B02A7611D43A0E7E0684246F1
:1045A000A1694030FFF7A0F8A369628A4344A36180
:1045B00080231B021F43D7E72000FFF711FFC046EF
:1045C00000001150FFFFFFAFFFFBFFFFFFFFFFDF0A
:1045D000F0B5C64600B5067C0400002E00D1D3E03D
:1045E00083681A681D684378AD05AD0D002B51D165
:1045F000838AEB189BB28382A18B8D4207D2002362
:10460000638263681B68300004BC9046F0BD62683A
:104610001268520002D58D4200D175E0638A002BEA
:10462000F1D062681F1C16688B4200D90F1C8025D0
:10463000BFB2DB1BE2789BB2ED0063823D43002AF0
:1046400002D09025AD013D4301214A40E2706278DD
:10465000002A68D0002B2AD1A023DB011D434F4B39
:104660001B6C4F4B33408026B6051E436368A2681F
:104670001E6013685B0500D58DE04A4B2B4013602C
:10468000FFE7FFE7FFE7FFE7FFE7FFE7A368002695
:104690001D60B8E72A00C1688069FFF725F8A38A82
:1046A000A269EB189BB25219A382A261A4E78022EF
:1046B00052011543394A126C920703D4A278D209E9
:1046C000012ACED1A28B111C9A423FD880278AB2F0
:1046D000FF009B1A90461743E2789BB26382002A40
:1046E0002FD101214A40E2706278002A3ED0002B8F
:1046F00002D18023DB011F432B4B3F043340A02614
:10470000F6053D431E43B1E7A26815686278AD0126
:10471000AD0D002A1CD1EB18A3828D4200D37DE79A
:10472000002363826FE73A00A169E068FEF7DCFFCF
:10473000A3699C46802367441B021D43A761638ACB
:1047400088E790274146BF010F43CAE7191CBDE720
:10475000E1682A004031A069FEF7C6FFA38AA18B59
:10476000EB18A382A3695B19A361D6E7E068424610
:10477000A1694030FEF7B8FFA3694344A3618023D9
:104780001B021F43638AB2E77F238178074A0848E8
:104790001940FDF707F92000FFF722FE0000115035
:1047A000FFFFFFAFFFFBFFFFFFFFFFDF98040020CD
:1047B00024110110024B5878431E9841C0B2704733
:1047C000C8110020024B18784007C00F7047C04640
:1047D000C8110020014B18787047C04631180020DE
:1047E000F8B54746CE4680B5294F05003B78002BEB
:1047F00004D001200CBC90469946F8BD53220021FC
:104800002448FEF76BFF244C2000FCF71BFE234BD3
:104810001C60234C20001C30FCF730FE200001F00F
:10482000C1FC204B204E1C60204B9846002B04D02E
:104830003000FFF775F91E4B1860424600243378AC
:10484000002A1DD01B4A9046194A91469C4210D31B
:104850001BD14346984701343378E4B2A342F5D2E2
:104860002800FFF7EFFB2800FFF7D4FB01233B7084
:10487000BFE74A46630012681B19DB009B58E9E753
:1048800001F046F83378002BEAD000231B68FFDEE6
:1048900031180020C8110020801100201C120020B7
:1048A000A00400202012002030180020213B00101E
:1048B000900E002011590010F0B5DE4657464E46C6
:1048C0004546E0B58BB001F02DFA002800D144E157
:1048D000C24BC34E9B4607AC3568EA69EFF31083C1
:1048E00072B611680029FCD0BFF35F8F2B622100E4
:1048F000280001F0CFFAEA692B6ABFF35F8F00212D
:10490000116083F31088002800D126E16378082B1A
:10491000E2D85A469B00D3589F466368002BDBD0F1
:10492000A0689847D8E77F222179AE4B0A4055000E
:10493000C8095B191B18180001273030C578BD4322
:10494000C570C5780337BD43C570002A00D10BE19F
:10495000A54ADB7C002A06D0A44A1278934200D2F2
:1049600091E19B1ADBB2002B00D0F6E0A04D6279FA
:104970002078A368A847AFE701229A4F01213B782E
:10498000042013433B703323FA5C8A43FA54FA5CE5
:104990008243FA540133FA5C8A43FA54FA5C824344
:1049A000FA54237800209A4600F064FE60222379AE
:1049B0001A40602A0DD0402A00D1F2E0DB06DB0E5F
:1049C000012B00D16AE1022B00D121E1002B00D1A3
:1049D000F6E020780021FFF7CFFC80212078FFF758
:1049E000CBFC79E77F4B1B78DB0700D474E7814B66
:1049F000002B00D170E700E000BF6DE7794B1A781B
:104A0000D20700D468E77C4A002A00D164E718780E
:104A10000007C00F00E000BF5EE7744D724A002738
:104A20002B78002A00D1B6E0744A90469F4208D302
:104A30009F4200D0B2E00137FFB29F4200D94BE75E
:104A4000F6D2414609687A008C46D219D2006244F7
:104A50005269002AEFD02078904701372B78FFB2B7
:104A60009F42E3D938E72378604D5F4A9846002794
:104A70002B78002A00D186E0614A91465F4A92462F
:104A80002A0045469046BB425ED800D078E04B46AF
:104A900028009847434601371B78FFB2BB42F2D249
:104AA000504D532200212800FEF718FE1022FF214E
:104AB000E81CFEF713FE28002022FF211330FEF72A
:104AC0000DFE00F0CDFD4F4B002B00D104E700E0C0
:104AD00000BF01E72378454D434A984600272B78CD
:104AE000002A47D0464A9146444A92462A00454603
:104AF00090469F421FD343D14B46280098474346D8
:104B000001371B78FFB2BB42F3D2364D532200214E
:104B10002800FEF7E3FD1022FF21E81CFEF7DEFD72
:104B200028002022FF211330FEF7D8FD00F098FD69
:104B30002379AB70D0E6524612687B009446DB19AD
:104B4000DB0063445B68D8E7524612687B009446FA
:104B5000DB19DB0063445B689AE70BB03CBC904612
:104B60009946A246AB46F0BD62792078A36800F072
:104B700095FDB1E6404600F009FF2B78002BC4D02C
:104B800000235B68FFDE404600F000FF2B78002B1F
:104B900000D185E7F4E7002B00D19DE600235B6997
:104BA000FFDE1948002800D113E700F063FD002163
:104BB000504608AA00E000BF002800D08CE608E7B5
:104BC000202A00D19FE0002A00D002E76379092B58
:104BD00000D9FEE60D4A9B00D3589F4650110110A4
:104BE00020120020C8110020213B001030180020A6
:104BF000815B00100000000000000000900E00200B
:104C00008D59001000000000000000007411011018
:104C10007023217A0B4200D0DBE60F330B405B00A0
:104C2000F818CD090093CF4B4019C07C002B06D05B
:104C3000CD4B1B78984200D288E0C01AC0B2002841
:104C40007ED1002A00D03AE1C84B0193637998469F
:104C50000223424699469A43012A00D133E1434652
:104C6000002B00D0B5E6009B06AAFB185D19303575
:104C7000EB7802329B07DB0F13805046022308A912
:104C800000F092FC28E65A00D318B94ADB001268FB
:104C9000D318002B00D160E71D6968E6237A0F2B3B
:104CA00000D996E6AF4AFB18DB78002A05D0AE4A59
:104CB0001278934264D39B1ADBB2002B00D088E6B3
:104CC000AC48AA4D00F0D6FC00215046EB6808AA7B
:104CD0009847002800D0FFE56022150023791D4089
:104CE0001A4200D075E663790A3B012B00D970E6C1
:104CF00000F0C0FC63790A2B00D145E1504608A9B9
:104D000000F03AFCE8E5237A0F2B00D961E6954ADA
:104D1000FB18DB78002A06D0934A1278934200D21F
:104D2000F5E09B1ADBB2002B00D052E691488F4D84
:104D300000F0A0FC00215046EB6808AA98473BE72A
:104D4000002A00D045E6002301937FE743009C46FC
:104D5000874B60441B68C0009C460300634401937A
:104D6000002A00D172E7002B00D132E6D86800F0AB
:104D700081FC019B00215046DB6808AA98471BE78D
:104D80007B4A5D00EB181568DB00ED18002D00D1A3
:104D90001FE6E86896E7E388012B00D019E60822B1
:104DA0003B785046934308A93B7000F0E5FB93E540
:104DB0000220397806AB9A1C8B068908DB0F01406C
:104DC0000B4359E7A37901931A007B789A4207D0E5
:104DD0007B78002B00D047E1019B002B00D0DCE06A
:104DE000019B504608A97B7000F0C6FB74E57B78F8
:104DF00006AA023213705046012308A900F0D4FB22
:104E00006AE5E088030AC0B20F2B00D9E1E55A49F0
:104E10009A008A58974608A800F032FC5046A179BB
:104E2000FFF7FEF802223B7813433B7054E5E3881A
:104E3000012B00D0CDE508223B785046134308A94A
:104E40003B7000F099FB47E54C4B002B00D1C0E5CF
:104E500000E000BF0200D37891781B020B4350465C
:104E600008A900F0A1FBA7E6454B002B00D1B0E557
:104E700000E000BF021E00D1ABE55046137808A940
:104E800000F092FB98E62189FEF77EFF021EF4D126
:104E90009FE5022B00D172E13A4B002B00D198E53F
:104EA00000E000BF0200002AD5D192E5FEF764FFC2
:104EB0001223020008A9504600F076FB7CE62B4B3B
:104EC0002C48019353E7E288002A09D14346012B7D
:104ED00028D0009BFB185D193035EB789B0734D543
:104EE000019D002D00D1F7E4EB681800009300F05D
:104EF000C1FBEB68002108AA50469847002000F04B
:104F0000B9FB3423FB5CDB0700D5E5E4F6E6184A81
:104F10005D00EB181568DB00ED18002D00D158E599
:104F2000E86805E7009BFB185D193035EB789B07B7
:104F3000D6D55046FFF73CFA4A46EB7893434246B3
:104F4000EB70EB789343EB70CAE75046FFF714FA27
:104F50000222EB7813430122EB70EB781343EB70E2
:104F6000BEE7C046213B001030180020DC110110C4
:104F7000900E00209D5A00109C11011000000000AE
:104F8000000000000000000006AB9A1C5046012300
:104F900008A9157000F008FB9EE4581EC0B2FEF789
:104FA000EFFE002800D114E543780493022B00D0D3
:104FB0000FE50121C3799A115B110A400B405201A0
:104FC0001B0113433A782F318A4313433B70092363
:104FD0009946C37882781B021343C3188144039314
:104FE000039B4B4500D8C3E04B4601225B780092FF
:104FF0000B2B07D14B46DB7800934B461B7899442B
:105000004B465B78042B00D0E3E44A46039B002523
:105010009B1A9BB202935C4A5C4B1B78002A16D108
:1050200062E0AB4270D15A4A5A4B904649465046CC
:10503000029A98478446082802D9029A824269D285
:10504000524B01351B78EDB2AB4200D2C1E4AB420A
:10505000E7D9514A6B0012685B199046DB0098440F
:10506000434605929B68E1E75046FFF715F9BB7888
:10507000464D454A009300212B78002A2DD0464A00
:1050800090462A000D0091469D421DD300D077E541
:10509000424B504698474B4601351B78EDB2AB4228
:1050A000F2D2532200213800FEF718FB1022FF2114
:1050B000F81CFEF713FB38002022FF211330FEF707
:1050C0000DFB009BBB7087E6424612686B0094465E
:1050D0005B19DB0063445B68DBE7504600F056FC7D
:1050E0002B78002BDDD04BE5029D49462A00504627
:1050F00000F062FC8446082801D9A84207D9234B56
:105100001B78002B00D164E400239B68FFDE204B5A
:105110001D4D9846009B012B22D0009B002B10D0E8
:105120004B469978002305E0D5700133009ADBB235
:10513000934206D2CA18D2B2BA18D078FF28F3D058
:1051400047E43800E0462B0049466246133000F041
:1051500029FE0E4BC1441B78AB4200D340E738E434
:1051600042460C4B92689A42DAD1049B0093D7E7EF
:105170000B4B002B00D133E600E000BF30E6FEF71A
:10518000FFFD02008FE6C046213B001030180020D2
:10519000DC110110B9590010900E00208D5900103B
:1051A0000000000030B587B005000C000C22002183
:1051B0006846FEF793FA6B461D705C70042C4FD066
:1051C00009D8022C34D0032C28D13C4B1A78520732
:1051D00058D407B030BD052C20D1384B1A78D207EF
:1051E000F7D504211A788A431A70354B1C68E26996
:1051F000EFF3108172B61368002BFCD0BFF35F8F02
:1052000021626946200000F013FFE269236ABFF3C0
:105210005F8F0021116083F31088DAE7284B1C6848
:10522000E269EFF3108172B61368002BE6D1FBE759
:105230000121224B1A788A431A701A780331A2434B
:105240001A7000225A701A788A431A701C4B1C6814
:10525000E269EFF3108172B61368002BCED1FBE741
:10526000164B1A78D207B4D504211A780A431A705B
:10527000134B1C68E269EFF3108172B61368002BC0
:10528000BCD1FBE704211A7803A88A431A700021D5
:105290000C22FEF723FA6B466A461D7305235373EF
:1052A000074B1C68E269EFF3108172B61368002B9C
:1052B000FCD0BFF35F8F216203A9A3E7C8110020D0
:1052C0002012002070B584B001AC06000D000C2245
:1052D00000212000FEF702FA012363700D4B2571B7
:1052E0001D682670EA69EFF3108372B61168002911
:1052F000FCD0BFF35F8F2B622100280000F098FEE6
:10530000EA692B6ABFF35F8F0021116083F3108875
:1053100004B070BD20120020002330B585B001AD6F
:105320006B8028700633082202A86B70FEF7DCF948
:105330000C4B1C68E269EFF3108372B61168002908
:10534000FCD0BFF35F8F23622900200000F070FEC5
:10535000E269236ABFF35F8F0021116083F3108835
:1053600005B030BD20120020F0B5C646804600B51D
:1053700084B001AC0F0016000021082220001D009F
:10538000FEF7ACF943462370072363700F4B65713A
:105390001D682771A660EA69EFF3108372B6116881
:1053A0000029FCD0BFF35F8F2B622100280000F0A2
:1053B0003FFEEA692B6ABFF35F8F0021116083F320
:1053C000108804B004BC9046F0BDC04620120020F6
:1053D000F0B54646D6464F468046C0B50C0015008F
:1053E0001E00002A2ED070239946184B00279A469B
:1053F0006378052B0FD1E1788907890FB1420AD173
:105400004A46A3781A4206D153462000997800F004
:105410008DFC002805D100201CBC90469946A24670
:10542000F0BD21004046FEF7BFFE0028F3D0A37870
:10543000DA09012A08D0089A137023780137E41892
:10544000AF42D5DB0120E7E7099AF5E7C811002054
:10545000702270B58B7805000C001A4201D0002034
:1054600070BD064B2000997800F060FC0028F6D053
:1054700021002800FEF798FEF2E7C046C811002080
:1054800070B57F240C406300144CC909E4186418FB
:105490003034E378DB07DD0F002B18D1E3785B07AE
:1054A00001D5280070BD01210D4E4942306805F03C
:1054B000F7F9E378DB07DD0F002B0AD1E3785B0710
:1054C00008D40422E37801251343E37002E00025A9
:1054D000E7E70025306805F0CBF9E2E7C8110020C6
:1054E0001C12002070B50C0001210F4D49422868A4
:1054F00005F0D6F97F2121404B000C49E409C91879
:1055000009193031CB780024DB0708D4CB785B074E
:10551000DC0F002B03DA0422CB789343CB7028688E
:1055200005F0A6F9200070BD1C120020C811002053
:1055300070B57F240C4065000E4C06006419C80944
:1055400024183034E5780020ED0700D570BD012522
:10555000E0782843E0703000FEF7FCFE0028F5D12B
:105560000122E3789343E370E37803329343E370DB
:10557000ECE7C046C811002070B50A4E05000822AD
:1055800030000C00FEF7B0F8002161560023C9433B
:10559000C90F2800F3600022C901B360FFF7C8FFFC
:1055A00070BDC0466C110020F8B5CE464746904607
:1055B000294E80B58146082230000D001F00FEF7FD
:1055C00093F84346B3600023F381EC79AB7924026E
:1055D0001C43231CBC4200D93B1C9FB2B381002C4E
:1055E00012D0002F1ED04346002B32D03B1C402F40
:1055F0001ED89FB233787F2B1FD80021174A3B005B
:105600004846FFF795FF09E0002169560023C9438A
:10561000C90F00224846C901FFF78AFF0CBC90461B
:105620009946F8BD33787F2B10D980210022E6E718
:1056300040239FB233787F2BDFD9084C3A00414694
:105640002000FEF751F880212200D8E70021002237
:10565000D5E70020E2E7C0466C1100208811002049
:1056600010B5142200210248FEF738F810BDC046DC
:105670006C110020014B18617047C0466C1100206E
:1056800010B5054C010008222000FEF72DF800237C
:10569000A360E36010BDC0466C110020F8B53A4C21
:1056A0001D0023780600DA09C9098A4213D00020B8
:1056B000002D00D0F8BD354B002B03D02100300069
:1056C000FEF764FD2369002B43D022000221300045
:1056D00098470120EEE77F2B06D8A068002836D037
:1056E0002A002B49FEF700F8A368E28959195219DC
:1056F000E38892B2E281A160934214D03F2D12D987
:10570000A589A81A071C80B240282ED82378BFB2DA
:105710007F2B2CD80021AA4234D01D4A3B003000F8
:10572000FFF706FFC6E72369002B05D02200012101
:105730003000984700280ED0002161560023C9434D
:10574000C90F00223000C901FFF7F2FEB2E70020C6
:10575000B0E70120AEE700213000FEF70DFE30007B
:105760008021FEF709FE0120A4E74027CEE7AA42E8
:1057700007D0074C3A002000FDF7B6FF8021220039
:10578000CCE780210022C9E76C1100208D41001078
:105790008811002010B50400FFF70CF8002801D193
:1057A000002010BDFFF70EF80028F9D1B6208000C8
:1057B000444303480019037901201840F1E7C0462B
:1057C000940E0020B6239B00584310B5024B1030B6
:1057D000C01800F039FB10BD940E0020F0B5B625BE
:1057E000AD0045432C00C646174F1034E41900B5F0
:1057F000200092B200F09CFB0600200000F03CFB71
:105800003F2803D8300004BC9046F0BD7B1900202F
:10581000D9789846FFF734FE0028F3D0200000F036
:105820002BFB3F280AD996239B00EA184346D2193E
:10583000D97800204023FFF77BFEE3E743460020B2
:10584000D978FFF74FFEDDE7940E0020F8B504008D
:10585000FEF7B0FF002801D10020F8BDFEF7B2FF2F
:105860000028F9D1B620800044432500144E2C3581
:10587000AD19280000F0E8FA0028EDD03719002013
:10588000B978FFF7FDFD0028E6D0A6239B009C46D3
:105890006444A41921002800402200F049FBB97893
:1058A000051E08D0030022000020FFF741FE00285B
:1058B000D2D02800D1E70020FFF714FECCE7C04685
:1058C000940E002070B5B624A4004443094B2C3438
:1058D000E418050092B2200000F0E8FB060020006A
:1058E00000F0B2FA3F2801D8300070BD2800FFF761
:1058F000ADFFF9E7940E0020B6239B00584310B586
:10590000024B2C30C01800F0B7FA10BD940E0020E6
:10591000B622F0B51B4C83B0002120009200FDF7A9
:10592000DDFEFF236371184B80260025E3800127ED
:10593000082321002000760023733200278165812F
:1059400048310095073B103000F042FA210020005A
:1059500049313200FF31012300972C3000F038FA32
:1059600092239B00E6183000FBF76CFD94239B000C
:10597000A662E61830006562FBF764FD2664656484
:1059800003B0F0BD940E002000C2FFFF10B5094C1B
:10599000052200212000FDF7A1FE20002C3410304C
:1059A00000F000FC200000F0FDFB0121200000F0D1
:1059B0001FFC10BD940E0020F0B54B79060083B09B
:1059C000022B02D18B79022B03D00025280003B0D3
:1059D000F0BD2F4FBB78002BF7D18B7809253B709A
:1059E0000C780C196378242B0BD1082A02D80FE00D
:1059F000AA420DD32378E418ED186378ADB2242BB6
:105A0000F6D0052B20D0042B02D163790A2B2ED09F
:105A1000204C200000F030FA3F28D7D92600103E55
:105A20000020F178FFF72CFD0028CFD0200000F0F7
:105A300023FA3F2816D992239B00E218F1784023DD
:105A40000020FFF775FDC1E721003000FFF700FDE2
:105A50000028BAD0A3787B702378ED18E418637817
:105A6000ADB2D0E7F1780020FFF73CFDAEE70A4B7E
:105A70002778019301330093022202233000E119B9
:105A8000FFF7A6FC0028A0D00E35ED19ADB2BFE798
:105A9000940E0020A40E0020960E0020F8B560237E
:105AA00014001278050013400020202B12D12F4E35
:105AB0006379277932781B023B439A420AD1637893
:105AC000222B27D007D8202B17D0212B02D1002939
:105AD0003ED00120F8BD232BFCD1002940D0022963
